:020000040800F2
:10000000A80400209D0100087B150008F5130008D6
:100010007915000801050008471A000800000000D3
:100020000000000000000000000000007F15000834
:1000300003050008000000007D1500088115000878
:10004000B7010008B7010008B7010008B7010008B0
:10005000B7010008B7010008B7010008B7010008A0
:10006000B7010008B7010008B7010008B701000890
:10007000B7010008B7010008B7010008B701000880
:10008000B7010008B7010008B7010008B701000870
:10009000B7010008B7010008B7010008B701000860
:1000A000B701000861160008B701000859160008DA
:1000B000B7010008B7010008B7010008B701000840
:1000C000B7010008B7010008B7010008B701000830
:1000D000B7010008B7010008B7010008B701000820
:1000E000B7010008B7010008B7010008B701000810
:1000F000B7010008B7010008B7010008B701000800
:10010000B7010008B7010008B7010008B7010008EF
:10011000B7010008B7010008B7010008B7010008DF
:10012000B7010008B7010008B7010008B7010008CF
:10013000B7010008B7010008B7010008B7010008BF
:10014000B7010008B7010008B7010008B7010008AF
:10015000B7010008B7010008B7010008B70100089F
:10016000B7010008B7010008B7010008B70100088F
:10017000B7010008B7010008B7010008000000003F
:10018000B7010008B7010008DFF80CD000F0A6F9AD
:10019000004800476D1A0008A80400200648804760
:1001A00006480047FEE7FEE7FEE7FEE7FEE7FEE75C
:1001B000FEE7FEE7FEE7FEE70D16000889010008EE
:1001C0002DE9F05F0546002092469B46884606468C
:1001D000814640241BE0284641464746224600F01F
:1001E000D9F853465A46C01A914110D311461846C1
:1001F000224600F0C0F82D1A67EB01084F46224650
:100200000120002100F0B7F817EB00094E41201E35
:10021000A4F10104DFDC484631462A464346BDE8E6
:10022000F09FD2B201E000F8012B491EFBD27047CB
:100230000022F6E710B513460A4604461946FFF7B2
:10024000F0FF204610BD2DE9F04D81EA030404F0D3
:10025000004B21F0004514464FF0000A23F0004106
:1002600050EA050220D054EA01021DD0C5F30A5716
:100270000246C5F31303C1F31300C1F30A5640F459
:10028000801543F48013A7EB0608101BD64608F22E
:10029000FD3873EB050002D308F1010801E0921864
:1002A0005B41B8F1000F03DA00200146BDE8F08D94
:1002B00000204FF48011064684460EE0171B73EBB6
:1002C000050705D3121B63EB050306434CEA010C3B
:1002D00049084FEA300092185B4150EA0107EDD11E
:1002E00052EA030012D082EA040083EA05010843BF
:1002F00005D0101BAB4106D20122002306E00022EC
:100300004FF0004302E06FF0010253101AEB0600B9
:100310004CEB085110EB0A0041EB0B01BDE8F04D2E
:1003200000F07FB80EB540F2334102910021CDE9D3
:1003300000110A460B4600F083F803B000BD01F03F
:10034000004330B421F0004150EA010206D00A0D0A
:10035000A2F56072C1F31301002A02DC30BC002058
:100360007047440F44EAC104C100E01830BC00EB00
:10037000C25000F01FB8202A04DB203A00FA02F134
:10038000002070479140C2F1200320FA03F3194383
:1003900090407047202A04DB203A21FA02F0002125
:1003A000704721FA02F3D040C2F120029140084385
:1003B000194670470029A8BF7047401C490008BF74
:1003C00020F00100704710B4B0FA80FC00FA0CF085
:1003D00050EA010404BF10BC704749B1CCF12004BD
:1003E00021FA04F411FA0CF118BF0121214308434A
:1003F000A3EB0C01CB1D4FEA00614FEA102042BF76
:10040000002010BC704700EBC35010440029A4BF6B
:1004100010BC7047401C490008BF20F0010010BC10
:10042000704710B5141E73F1000408DA401C41F146
:10043000000192185B411A4301D120F0010010BD68
:100440002DE9F04D92469B4611B1B1FA81F202E0DE
:10045000B0FA80F220329046FFF78DFF04460F4637
:1004600040EA0A0041EA0B0153465A46084313D0BA
:10047000114653EA010019D0C8F140025046FFF777
:1004800089FF05460E46504659464246FFF773FF20
:10049000084305D0012004E020463946BDE8F08D30
:1004A0000020054346EAE0762C4337430A9863056B
:1004B000E40AA0EB08000022FD0A44EA47540A308F
:1004C00002D500200146E9E7010510196941DDE97F
:1004D000084500196941BDE8F04DA2E7064C074DFB
:1004E00006E0E06840F0010394E807009847103404
:1004F000AC42F6D3FFF74CFED41A0008F41A0008F9
:10050000FEE77047704700002DE9F84F5B4A4FF057
:10051000080A4FF0010B4FF000084FF0000E904218
:10052000574A08BF4FF0070A02444FEAB223072B8D
:1005300038BF4FEAB22A0022102A08BFBDE8F88F60
:100540000B680BFA02F6334200F091804B6843F0DF
:100550001004122C13D16FF003040EF01C030F27AC
:1005600004EA520507FA03FC05442C6A24EA0C0C41
:100570000C6904FA03F343EA0C032B624B6803276C
:1005800003F00305122B07FA08F4076805FA08F5CB
:100590006FEA040C27EA040747EA0507076013D847
:1005A0000BFA03F414F0061F0ED08468CD6804EA39
:1005B0000C0405FA08F52C438460C3F30014456865
:1005C0009440B5432C434460C4688D68DB0004EA62
:1005D0000C0705FA08F547EA0507C76047D5002369
:1005E000284C0EF00C050093284BA4461F461B68B0
:1005F00043F480433B603B6803F48043009322F064
:1006000003032344224C009FA1461F590F24AC40F2
:100610000AFA05F5A7432F4343F80970DCF80030C8
:100620004D6843EA0607EC0358BF23EA0607CCF8F7
:100630000070AC03DCF8043043EA060758BF23EA35
:100640000607CCF80470EC02DCF8083043EA060731
:1006500058BF23EA06070C4BCCF80870AD021C46C5
:100660001B6843EA060758BF23EA0607276008F11C
:1006700002080EF1040E01325EE700BF001C0240CA
:100680000000FEBF003C01400C3C014044380240E9
:1006900008FCFFFF05480068704700BF1F4803497A
:1006A00000780A6810440860704700BFA40000206A
:1006B00080B50B48016841F400710160016841F4A4
:1006C00080610160016841F480710160032000F0E5
:1006D0006FF8002000F006F800F022F8002080BD3E
:1006E000003C024070B50D4E04464FF47A713078EC
:1006F000B1FBF0F07E490968B1FBF0F000F096FA2A
:1007000001250F2C08D838B94FF0FF3021460022C0
:10071000002500F02FF87460284670BD000000200E
:1007200082B000200B4901904A6842F480424A603E
:100730004A6802F480420192019A0090086840F0F1
:1007400080500860086800F080500090009802B067
:10075000704700BF40380240002808DB00F01F014E
:100760000122400902FA01F1014A42F820107047C3
:1007700000E100E080B5144B1B68C3F3022CBCF110
:10078000030E8CF007034FF0FF3C38BF4FF0000E14
:10079000042B28BF04230CFA03F399430CFA0EF33D
:1007A00001FA0EF19A431143BDE8804001F04CB9C3
:1007B00005494FF6FF030A681A4060F30A2203480E
:1007C00010430860704700BF0CED00E00000FA0520
:1007D0002DE9F041002800F08380434B0446884611
:1007E000D3F8000400F00F00884207D283F8008499
:1007F000D3F8000400F00F00404571D12068810754
:1008000011D5410742BF996841F4E0519960010751
:1008100042BF996841F4604199609968A26821F0EB
:10082000F00111439960C0072AD06068811E022937
:1008300003D21968890109D452E0012803D119684B
:10084000890303D44CE01968890749D599681D4686
:1008500021F0030108439860FFF71CFF064641F2B0
:100860008837A86861682B4600F00C00B0EB810F58
:1008700006D0FFF70FFF801BB842F2D9032430E007
:10088000D3F8000400F00F00404507D983F8008436
:10089000D3F8000400F00F00404521D12068410743
:1008A00005D59968E26821F4E05111439960000789
:1008B00006D59868216920F4604040EAC10098603C
:1008C0001C4600F017F8A168084A0024C1F3031180
:1008D000515CC840064908600020FFF703FF00E0B4
:1008E00001242046BDE8F08100380240C21A000809
:1008F0000800002010B5144C606800F00C0113488B
:10090000082904D0042904BF114810BD10BD216876
:10091000236801F03F0221685B02C1F3881105D40E
:10092000A1FB00010023FFF74BFC03E0084848430C
:10093000B0FBF2F021680222C1F3014102EB410158
:10094000B0FBF1F010BD00BF043802400024F400F9
:1009500000127A002DE9FC41002800F005810446D0
:100960000078AF4EC0072FD0B06800F00C0004280C
:1009700023D0B06800F00C00082802D17068400253
:100980001BD46768B7F5803F07D03068B7F5A02F54
:1009900040F00B8140F480203060306840F48030BB
:1009A0003060FFF777FE0546306880030CD4FFF710
:1009B00071FE401B6428F7D99DE03068800303D5A1
:1009C0006068002800F0D080207880072BD5B068C0
:1009D00010F00C0F07D0B06800F00C00082809D107
:1009E0007068400206D43068800715D5E068012899
:1009F00012D0B9E0E1688B4800297ED00121016066
:100A0000FFF748FE05463068800705D4FFF742FE31
:100A1000401B0228F7D96EE03068216920F0F80009
:100A200040EAC10030602078000721D5606978B1C4
:100A30007C480121C0F8801EFFF72CFE0546706F30
:100A4000800715D4FFF726FE401B0228F7D952E095
:100A500074480021C0F8801EFFF71CFE0546706F29
:100A6000800705D5FFF716FE401B0228F7D942E0A4
:100A70002078400770D5306C4FF00008C0000CD4CF
:100A8000CDF804804FF00108306C40F080503064A5
:100A9000306C00F0805001900198634F3868C005B9
:100AA0000FD4386840F480703860FFF7F3FD0546D6
:100AB0003868C00505D4FFF7EDFD401B0228F7D9C3
:100AC00019E0A768012F05D0306F052F25D140F020
:100AD00004003067306F40F001003067FFF7DAFD47
:100AE000054641F28837306F80072ED4FFF7D2FDDC
:100AF000401BB842F7D9032037E000210160FFF71F
:100B0000C9FD0546306880077FF58DAFFFF7C2FD50
:100B1000411B03200229F5D927E020F001003067AE
:100B2000306F20F004003067FFF7B4FD0546002F5A
:100B3000D7D141F28837306F800706D5FFF7AAFD7D
:100B4000411B0320B942F6D90FE0B8F1000F1EBFD8
:100B5000306C20F080503064A769002F5DD0B06801
:100B600000F00C00082803D1012002B0BDE8F0819C
:100B70002C49002088460866FFF78CFD0546022FA9
:100B800009D13068800128D5FFF784FD411B03207F
:100B90000229F6D9E9E7306880013ED5FFF77AFDF2
:100BA000411B03200329F6D3DFE720F480303060B7
:100BB000306820F480203060FFF76CFD0546002F80
:100BC0007FF4F2AE306880037FF5FEAEFFF762FD82
:100BD000411B03206429F5D9C7E704F11C078FCF17
:100BE0000843D90340EA82104FF6FF72914340EA6E
:100BF0000760A1F58031084370600120C8F86000EB
:100C0000FFF748FD04463068800106D4FFF742FD37
:100C1000011B03200229F6D9A7E70020A5E700BFA2
:100C2000003802400000474200700040411E002092
:100C3000B0EB116F1CBF01207047044AF0235160D4
:100C400003490B70072190601160704710E000E0CD
:100C500023ED00E07047704790F83C300222012BF2
:100C600019D010B580F83D200268D2F804E0D2F81F
:100C700008C0D1E900342EF07001194351602CF006
:100C80008001214391600022012180F83C2080F8FE
:100C90003D10BDE8104010467047B0B110B5044695
:100CA00090F83D0028B9002084F83C00204600F070
:100CB0000FF80220211D84F83D00206800F0D6FCCA
:100CC000012084F83D00002010BD01207047000085
:100CD00010B586B0044601A81421FFF7A9FA2168CF
:100CE0001C48814233D100211B4A00F5803000911D
:100CF000536943F001035361536903F00103009307
:100D0000009B0091136843F001031360126802F026
:100D100001020092009A01220592CDE903110221FD
:100D200002914FF48071019101A9FFF7EDFB1920A9
:100D300000210022FFF71EFD1920FFF70DFD1B20EB
:100D400000210022FFF716FD1B20FFF705FD06B06E
:100D500010BD00BF000001403038024010B590F8CF
:100D60003C2004460220012A08BF10BD84F83D0043
:100D700001204FF6777284F83C00206884465CF8C6
:100D8000083F23EA0202CCF800200B682BB1102B9D
:100D900003D0202B18BF302B0FD1DCF8000020F03F
:100DA0007000184340F00700CCF80000002001213B
:100DB00084F83C0084F83D1010BD402B1AD0502B15
:100DC00026D0602B32D0B3F5005F3DD0702BEDD133
:100DD000D1E90102C968104340EA0120DCF80010A3
:100DE00021F47F410843CCF80000DCF8000040F01B
:100DF0007700D9E74B68CA68194600F0A3FDD4F81C
:100E000000C05CF8080F40F0470020F03000CBE74E
:100E10004B68CA68194600F095FDD4F800C05CF82C
:100E2000080F40F0570020F02000BDE74B68CA686B
:100E3000194600F0DBFDD4F800C05CF8080F40F064
:100E4000670020F01000AFE7D1E90102C968104344
:100E500040EA0120DCF8001021F47F410843CCF87F
:100E60000000DCF8000040F480409DE70000000036
:100E70002DE9F0412DED028B0446007F012830D191
:100E8000DFF89086002108F1140000F077FA0028BE
:100E9000C8F80C0024D0FFF745FA9FED190B054662
:100EA0000E462A46334651EC100BFFF7CCF9FFF7FC
:100EB00046FA0746D8F81000FFF734FAB7EE000AF2
:100EC00001EE107A2A46334680EE018AFFF7BBF91D
:100ED000C8F8007088ED018AFFF731FAC8F80800F9
:100EE000207F022806D1084C042104F1140000F0F0
:100EF00045FA2061BDEC028BBDE8F08100BF00BF68
:100F0000000000009005704110000020B0B50D46B3
:100F100090F83C1004460220012908BFB0BD84F8B7
:100F20003D000120042A84F83C000AD09AB9D5E992
:100F30000012EB68206800F017FD206850F8181FB9
:100F400026E0D5E90012EB68206800F060FD20681B
:100F500050F8181F3BE0D5E900C32168D5F80CE034
:100F6000082A086A19D120F480706EF3071308620A
:100F7000084650F81C2F22F0F3021A430B6A026055
:100F80000CF00A0223F4206343EA02220A62016899
:100F900021F00C010160A9681EE020F480504FF29E
:100FA000FF020862180220EA0202084650F81C3FBD
:100FB0006EF30F3223F473431A430B6A02600CF092
:100FC0000A0223F4204343EA02320A62016821F450
:100FD00040610160A96809020268114301600020B4
:100FE000012184F83C0084F83D10B0BDB0B110B5CB
:100FF000044690F83D0028B9002084F83C002046C3
:1010000000F00EF80220211D84F83D00206800F059
:101010002DFB012084F83D00002010BD0120704709
:101020007047000010B504464FEAB100032808D805
:10103000DFE800F002090E132068C26842F00202E5
:101040000FE020680EE02068C26842F0040208E069
:101050002068C26842F0080203E02068C26842F0DB
:101060001002C260012200F061FB2068816801F07B
:10107000070106291EBF016841F00101016000203F
:1010800010BD10B5044600680169890744BFC168F6
:101090005FEA817138D40169490744BFC1685FEADA
:1010A00041713DD40169090744BFC1685FEA01711C
:1010B00043D40169C90644BFC1685FEAC16148D42D
:1010C0000169C9071CBFC1685FEAC1714ED10169DE
:1010D000090644BFC1685FEA01614FD4016949064E
:1010E00044BFC1685FEA416150D40169890646BFC7
:1010F000C1685FEA816110BD6FF020010161204687
:10110000BDE81040FFF7A7BD6FF0020101610121AA
:1011100021778069800741D02046FFF7A9FE43E090
:101120006FF00401016102212177806910F4407F92
:101130003ED02046FFF79CFE40E06FF008010161C1
:1011400004212177C06980073CD02046FFF790FE3C
:101150003EE06FF01001016108212177C06910F4B1
:10116000407F39D02046FFF783FE3BE06FF001015E
:101170000161204600F000F92068A8E76FF08001C7
:1011800001612046FFF766FD2068A7E76FF0400188
:101190000161204600F02DF92068A6E7204600F006
:1011A0004BF8204600F0CAF800202077206872E74C
:1011B000204600F041F8204600F0C0F800202077DB
:1011C00020686FE7204600F037F8204600F0B6F8B8
:1011D0000020207720686CE7204600F02DF820469C
:1011E00000F0ACF800202077206869E710B586B0E1
:1011F000044601A81421FFF71BF82168DD4881424D
:1012000018D100218E4A00F550400091136843F038
:1012100010031360126802F010020092009A032279
:101220000592CDE90311022102914021019101A90A
:10123000FFF76AF906B010BD7047000070B50D46A3
:1012400090F83C1004460220012908BF70BD84F8C4
:101250003D004FEAB2000126032884F83C6036D8EE
:10126000DFE800F0020A12222068294600F06EFA38
:10127000206850F8181F0EE02068294600F094FA04
:10128000206850F8181F16E02068294600F0BEFAC2
:10129000206850F81C1F41F008010160016821F02E
:1012A0000401016029690FE02068294600F0E0FA96
:1012B000206850F81C1F41F400610160016821F4AE
:1012C0008061016029690902026811430160002000
:1012D00084F83C0084F83D6070BDB0B110B50446A0
:1012E00090F83D0028B9002084F83C00204600F02A
:1012F0000FF80220211D84F83D00206800F0B6F9A7
:10130000012084F83D00002010BD0120704700003E
:1013100000689849884218BF704781B0002000904B
:101320000548016841F480310160006800F48030B4
:101330000090009801B070474438024070470000A8
:1013400010B504460068012200F0F0F92068F04A68
:1013500040F48061914202BF416C41F4004141641C
:10136000816801F0070106291EBF016841F00101F3
:101370000160002010BD00BF704700004FEAB101BE
:10138000032984BF00207047DFE801F0020B050845
:101390000068343007E000683C3004E0006840300A
:1013A00001E00068383000687047B0B590F83C2024
:1013B00004460220012A08BFB0BD84F83D00012583
:1013C000204684F83C5000F079FA00284FF00100E4
:1013D00009D12068C16821F04001C160C16821F4D1
:1013E0008041C1600020002184F83C1084F83D5009
:1013F000B0BD7047FEE7000083B0002110480291A5
:10140000026842F010020260026802F010020292CA
:10141000029A0191026842F080020260026802F0C2
:1014200080020192019A0091016841F0010101607E
:10143000006800F001000090009803B0704700BF02
:1014400030380240B0B590B0002507A81421CDE98E
:101450000E55CDE90C55FEF7EBFE2E4CAD49CDE90E
:1014600004550922204640F8141F4FF6FF71C0E9C9
:101470000125C0E90315C0E90555CDE90255CDE9BF
:101480000055FFF70AFC08B1FFF73CF84FF4805015
:1014900014340CA90C902046FFF760FC08B1FFF74C
:1014A00031F82046FFF7A2FD08B1FFF72BF8002521
:1014B000502007A90B950995089004200790204615
:1014C000FFF773FF08B1FFF71DF804A92046CDE927
:1014D0000455FFF7C1FB08B1FFF714F80020012104
:1014E0000022CDE90200CDE9000169462046FFF760
:1014F0000DFD08B1FFF706F8022069460422CDE988
:1015000000002046FFF702FD08B1FEF7FBFF10B018
:10151000B0BD00BF1000002010B588B001A81C218C
:10152000FEF786FE12487E4B002440F2E731A722E8
:101530008461C0E90032C0E902410461FFF7CDFED9
:1015400008B1FEF7DFFF4FF4FA700594039401A988
:1015500004220290602001900548FFF76FFE08B159
:10156000FEF7D0FF0248FFF741FE08B010BD00BFF4
:101570006400002000400140FEE77047704770475C
:10158000FFF78CB8B0B592B000241E480225CDE913
:101590000A44CDE908440194016841F0805101609A
:1015A000006800F08050019001980194164801688D
:1015B00041F480410160A821006800F4804001905E
:1015C0000198042011901095CDE90E014FF4800090
:1015D000CDE90C504FF4803007900120069006A80A
:1015E000FFF7B8F94FF48050052105904FF4A05053
:1015F00004900F20CDE90254019001A8FFF7E8F80C
:1016000012B0B0BD403802400070004010B50E4826
:101610000F4CD0F8801041F47001C0F880100B49D5
:101620000A6842F001020A6000228A600B682340C7
:101630000B60084B4B600B6823F480230B60CA607F
:101640004FF00061016010BD08ED00E0003802407D
:10165000FFFFF6FE103000240348FFF712BD00BF65
:101660000148FFF70EBD00BF240000200268B0F162
:10167000804F0ED0D64B98420BD0D64B984208D014
:10168000D54B984205D0D84B984202D0D44B9842C3
:1016900003D14B6822F070021A43B0F1804F20D082
:1016A000CB4B98421DD0CB4B98421AD0CA4B984294
:1016B00017D0CA4B984214D0174B984211D0174BF1
:1016C00098420ED0C64B98420BD0C74B984208D0D8
:1016D000C44B984205D0134B984202D0124B98420B
:1016E00003D1CB6822F440721A434B6922F0800286
:1016F0001A43BD4B02608A68C2620A68826240F483
:1017000080629A4204BF0969016301214161704707
:101710000004014000000140001C00400020004087
:1017200000400140004801400044014001F01F0119
:10173000012303FA01FC036A02FA01F123EA0C0314
:101740000362026A114301627047000070B5026AC9
:1017500022F001020262036AD0F804E082698C6818
:10176000D1F800C023F0020322F0730223439E4C01
:101770004CEA020C40F48062A2420CD1CE68D1E95E
:1017800005452EF44072224342EA050E23F00C0276
:1017900026F004031343C0F804E0C0F818C04968F9
:1017A0004163036270BD00BF70B5026A22F010028F
:1017B0000262026AD0F804E083698C68D1F800C044
:1017C00022F0200223F4E64342EA0412864C43EA64
:1017D0000C2C40F48063A3420FD1CE68D1E90545BB
:1017E0002EF4406322F0C00243EA840343EA850EEC
:1017F0006FF0400303EA06131A43C0F804E0C0F890
:1018000018C049688163026270BD00BF70B5026A8A
:1018100022F480720262026AD0F804E0C3698C6824
:10182000D1F800C022F4007223F0730342EA0422CC
:101830006D4C4CEA030C40F48063A3420FD1CE6898
:10184000D1E905452EF4405322F4406243EA0413E3
:1018500040F2FF4443EA051E3302A3431A43C0F893
:1018600004E0C0F81CC04968C163026270BD00BFDB
:10187000B0B5026A22F480520262D0F820C04368F8
:10188000D0F81CE08A680D682CF4005444EA023C4D
:101890002EF4E642544C42EA052240F48065A5420B
:1018A00002BF4D6923F4804343EA85134360C2615C
:1018B00049680164C0F820C0B0BD00BF80B50068B1
:1018C000826822F0770ED1E900C222F0070343EAD2
:1018D0000E0343EA0C0383606FF0030303EB321340
:1018E000032B2DD8DFE803F002151B21BCF1050FF7
:1018F00004BF012080BD026A036A23F00103036272
:101900008369096923F0F00343EA011181610262EE
:1019100016E08B680A69194600F014F810E08B682D
:101920000A69194600F062F80AE0D1E90223096960
:101930001A4342EA0121826822F47F421143816006
:10194000002080BDD0F820C0036A23F001030362A9
:10195000836923F0F00343EA021282612CF00A0249
:10196000114301627047000010B5D0F820C0B0F1FB
:10197000804F2CF0010CC0F820C0D0F818E0D0F84F
:1019800020C014D0124CA04211D0124CA0420ED054
:10199000114CA0420BD0114CA04208D0104CA042D8
:1019A00005D0104CA04202D00F4CA0420CD12EF01A
:1019B0000304224363F3071201F00A0182612CF051
:1019C0000A021144016210BD4EF00102F2E700BFAD
:1019D0000004004000080040000C004000180040D7
:1019E000000001400040014000040140036A23F070
:1019F00010030362836923F4704343EA0232036AEB
:101A0000826123F0A00242EA011101627047D0F81E
:101A100020C001F00A012CF0100CC0F820C04FEAE1
:101A2000022C4FF2FF022CEA020263F30F328369A9
:101A300023F473431A43036A826123F0A00242EA4B
:101A4000011101627047FEE710B5074C00F00F036B
:101A5000044AB0F1FF3F2344C8BF8318080118703F
:101A600010BD00BF00E400E014ED00E0FEF720FE32
:101A7000FFF788FDFFF7C0FCFFF7E4FCFFF74CFD24
:101A800006480421FFF75CFC054C00212046FFF7C7
:101A9000C9FA20460421FFF7C5FAFEE764000020DA
:101AA0002400002002E008C8121F08C1002AFAD151
:101AB00070477047002001E001C1121F002AFBD1CE
:101AC0007047000000000000000001020304060748
:101AD00008090000F81A00080000002010000000AB
:101AE000A41A0008081B0008100000209804000039
:101AF000B41A0008000000000100000010000000FF
:081B00000024F40000000000C5
:040000050800018965
:00000001FF
